:10055000202020202000482E492E542E2043484998
:100560004E410054696D65202000416C61726D2020
:01057000008A
:100507000313173A000308000000C182C101C103A9
:10051700010B00010C00020F0000C100020D0000DA
:0405270002110000BD
:04052C007F0A7E00C4
:10053000E4FDFCC3ED9FEC9E5015E4FBFA0BBB0001
:0F054000010AEB64784A70F50DBD00010C80E4F0
:01054F002289
:1005C400C2A0C2A18FB0D2A27F017E00120530C2A8
:0405D400A20205304A
:0905710075F00A84E5F02430FF66
:10057A00D2A0C2A18FB0D2A27F017E00120530C2E2
:04058A00A202053094
:10058E007F381205C47F0C1205C47F061205C47F86
:0B059E00011205C47F027E0002053040
:0F05E800EF70047F8080027FC0EF2DFF0205C4FB
:0604D9007BFF7D027F01A4
:1004DF008B1A8A1B891C1205E8AB1AAA1BA91C12BE
:1004EF0001046013051CE51C7002051B14F91201B1
:0804FF0004FF12057A80E222DD
:10046000AD197F011205E830041030000D7BFF7AD2
:10047000057950AD197F010204DFE51675F00A8495
:100480002430FF12057AE5161205717F3A12057ABB
:10049000E51775F00A842430FF12057AE517120576
:0204A0007122C7
:1004A20030013130032E30021DE4F9E9C3940374A4
:1004B200809480501CC2A57F647E00120530D2A5B4
:1004C2001205300980E5C2A57F2C7E01120530D2CB
:0604D200A5C20122D2A523
:0104D8002201
:100418000515C3E515943C748094804021E4F515D6
:100428000514E514943C748094804012E4F5140596
:1004380013E5139418748094804003E4F513E513CE
:10044800B50814E514B5090FE515700BD201D203F0
:08045800F51175123CC2A3224C
:1001720020904212052C3090FDAF0B7E00EF7005EF
:10018200750B028030EF64024E7013E5132401FFF9
:10019200E433FE7C007D1812011D8D138017E50BE0
:1001A20064037011E5082401FFE433FE7C007D182E
:1001B20012011D8D0820914512052C3091FDAF0BC7
:1001C2007E00EF7008750B01750C038030EF64023E
:1001D2004E7013E5142401FFE433FE7C007D3C12D3
:1001E200011D8D148017E50B64037011E5092401CC
:1001F200FFE433FE7C007D3C12011D8D0920921F1D
:1002020012052C3092FDAF0B7E00EF64017004F5F5
:100212000B800CEF4E7005750B038003E4F50B2089
:10022200933612052C3093FD30030EC203C201E453
:10023200F511F512D2A3D2A522B202E4F9E9C394D0
:1002420003748094805011C2A57F647E0012053031
:08025200D2A51205300980E578
:01025A002281
:1005D800758901758CFC758A67D2A9D2AFD28C2235
:03000B0002025B93
:10025B00C0E0C0F0C0D075D000C000C001C002C06B
:10026B0003C004C005C006C007758CFC758A670502
:10027B0010E5107002050FAE0FFF7C007D1412010C
:10028B001DED4C7002B2A4050EE50E7002050DC3F8
:10029B0094F4E50D94014008750D00750E00B20045
:1002AB00C3E51094E8E50F94034047750F007510F4
:1002BB0000120418300322D2011204A2D3E51294C7
:1002CB0000E5119400400AE5121512700215118019
:1002DB0008C203C201D2A3D2A5D3E50C940074804B
:1002EB009480400E150CE50C7008E50B6401700250
:1002FB00F50BD007D006D005D004D003D002D00127
:09030B00D000D0D0D0F0D0E032D7
:1003A0007BFF7A0579567D02E4FF1204DFAF0BEF85
:1003B0006004640270297A0579631204D978167C86
:1003C000007D007B007A0079137E007F031200DE3F
:1003D000751908E50B64027003D38036C38033AF10
:1003E0000BEF64016005EF6403702C7A05796A12E3
:1003F00004D978167C007D007B007A0079087E00A5
:100400007F031200DE751908E50B64037003D380C7
:0804100001C3920412046022F2
:1005A90012058E1205D8D2A3D2A5C2A47FF47E016A
:0B05B9001205301201721203A080F83E
:03000000020314E4
:0C031400787FE4F6D8FD75812002035BC1
:10000E00E709F608DFFA8046E709F208DFFA803ED4
:10001E0088828C83E709F0A3DFFA8032E309F608C1
:10002E00DFFA8078E309F208DFFA807088828C8329
:10003E00E309F0A3DFFA806489828A83E0A3F608DD
:10004E00DFFA805889828A83E0A3F208DFFA804CB7
:10005E0080D280FA80C680D4806980F2803380108E
:10006E0080A680EA809A80A880DA80E280CA8033F7
:10007E0089828A83ECFAE493A3C8C582C8CCC5836F
:10008E00CCF0A3C8C582C8CCC583CCDFE9DEE7803F
:10009E000D89828A83E493A3F608DFF9ECFAA9F0BE
:1000AE00EDFB2289828A83ECFAE0A3C8C582C8CC14
:1000BE00C583CCF0A3C8C582C8CCC583CCDFEADE2D
:1000CE00E880DB89828A83E493A3F208DFF980CC8F
:1000DE0088F0EF60010E4E60C388F0ED2402B40488
:1000EE000050B9F582EB2402B4040050AF2323452F
:0600FE00822390005E73F6
:10010400BB010689828A83E0225002E722BBFE02F9
:09011400E32289828A83E493222C
:10011D00BC000BBE0029EF8DF084FFADF022E4CCC6
:10012D00F875F008EF2FFFEE33FEEC33FCEE9DEC8F
:10013D00984005FCEE9DFE0FD5F0E9E4CEFD22EDD5
:10014D00F8F5F0EE8420D21CFEADF075F008EF2F1F
:10015D00FFED33FD4007985006D5F0F222C398FD10
:05016D000FD5F0EA22AD
:100320000205A9E493A3F8E493A34003F68001F245
:1003300008DFF48029E493A3F85407240CC8C333DE
:10034000C4540F4420C8834004F456800146F6DFAD
:10035000E4800B0102040810204080900507E47E31
:10036000019360BCA3FF543F30E509541FFEE493A2
:10037000A360010ECF54C025E060A840B8E493A369
:10038000FAE493A3F8E493A3C8C582C8CAC583CA94
:10039000F0A3C8C582C8CAC583CADFE9DEE780BE4C
:01052B0000CF
:00000001FF
